{
  "abi": [
    {
      "constant": false,
      "inputs": [
        {
          "internalType": "address",
          "name": "_underlying",
          "type": "address"
        },
        {
          "internalType": "address",
          "name": "_aToken",
          "type": "address"
        }
      ],
      "name": "_add_token",
      "outputs": [],
      "payable": false,
      "stateMutability": "nonpayable",
      "type": "function"
    },
    {
      "constant": false,
      "inputs": [
        {
          "internalType": "address",
          "name": "_reserve",
          "type": "address"
        },
        {
          "internalType": "uint256",
          "name": "_amount",
          "type": "uint256"
        },
        {
          "internalType": "address",
          "name": "_receiver",
          "type": "address"
        },
        {
          "internalType": "uint16",
          "name": "_referralCode",
          "type": "uint16"
        }
      ],
      "name": "deposit",
      "outputs": [],
      "payable": true,
      "stateMutability": "payable",
      "type": "function"
    },
    {
      "constant": true,
      "inputs": [],
      "name": "lastReferral",
      "outputs": [
        {
          "internalType": "uint16",
          "name": "",
          "type": "uint16"
        }
      ],
      "payable": false,
      "stateMutability": "view",
      "type": "function"
    },
    {
      "constant": false,
      "inputs": [
        {
          "internalType": "address",
          "name": "asset",
          "type": "address"
        },
        {
          "internalType": "uint256",
          "name": "amount",
          "type": "uint256"
        },
        {
          "internalType": "address",
          "name": "to",
          "type": "address"
        }
      ],
      "name": "withdraw",
      "outputs": [],
      "payable": false,
      "stateMutability": "nonpayable",
      "type": "function"
    }
  ],
  "bytecode": "608060405234801561001057600080fd5b5061036a806100206000396000f3fe60806040526004361061003f5760003560e01c806369328dec14610044578063e8eda9df14610089578063f6b3b485146100c8578063fdcc6363146100f4575b600080fd5b34801561005057600080fd5b506100876004803603606081101561006757600080fd5b506001600160a01b0381358116916020810135916040909101351661012f565b005b6100876004803603608081101561009f57600080fd5b5080356001600160a01b0390811691602081013591604082013516906060013561ffff166101d5565b3480156100d457600080fd5b506100dd6102fd565b6040805161ffff9092168252519081900360200190f35b34801561010057600080fd5b506100876004803603604081101561011757600080fd5b506001600160a01b0381358116916020013516610307565b6001600160a01b038381166000908152600160205260409020541661015357600080fd5b6001600160a01b03808416600090815260016020526040808220548151630e6dfcd560e01b81523360048201528585166024820152604481018790529151931692630e6dfcd59260648084019391929182900301818387803b1580156101b857600080fd5b505af11580156101cc573d6000803e3d6000fd5b50505050505050565b6001600160a01b03848116600090815260016020526040902054166101f957600080fd5b6000805461ffff191661ffff83161781556001600160a01b03858116808352600160205260408084205481516323b872dd60e01b8152878516600482015293166024840152604483018790525190926323b872dd926064808201939182900301818387803b15801561026a57600080fd5b505af115801561027e573d6000803e3d6000fd5b5050506001600160a01b038086166000908152600160205260408082205481516340c10f1960e01b81528785166004820152602481018990529151931693506340c10f19926044808301939282900301818387803b1580156102df57600080fd5b505af11580156102f3573d6000803e3d6000fd5b5050505050505050565b60005461ffff1681565b6001600160a01b03918216600090815260016020526040902080546001600160a01b0319169190921617905556fea265627a7a72315820f8f5a899908800d03c3e784f9db86ad6e1572326fa0bbe9056fcac15c5cec17864736f6c63430005110032",
  "bytecodeSha1": "5d48ba3a671d0504e4525f6b5a2f2d1ffe7677ac",
  "compiler": {
    "evm_version": "istanbul",
    "optimizer": {
      "enabled": true,
      "runs": 200
    },
    "version": "0.5.17+commit.d19bba13"
  },
  "contractName": "AaveLendingPoolMock",
  "language": "Solidity",
  "natspec": {
    "methods": {
      "deposit(address,uint256,address,uint16)": {
        "details": "deposits The underlying asset into the reserve. A corresponding amount of the overlying asset (aTokens) is minted.",
        "params": {
          "_amount": "the amount to be deposited",
          "_referralCode": "integrators are assigned a referral code and can potentially receive rewards.*",
          "_reserve": "the address of the reserve"
        }
      }
    }
  },
  "opcodes": "PUSH1 0x80 PUSH1 0x40 MSTORE PUSH1 0x4 CALLDATASIZE LT PUSH2 0x3F JUMPI PUSH1 0x0 CALLDATALOAD PUSH1 0xE0 SHR DUP1 PUSH4 0x69328DEC EQ PUSH2 0x44 JUMPI DUP1 PUSH4 0xE8EDA9DF EQ PUSH2 0x89 JUMPI DUP1 PUSH4 0xF6B3B485 EQ PUSH2 0xC8 JUMPI DUP1 PUSH4 0xFDCC6363 EQ PUSH2 0xF4 JUMPI JUMPDEST PUSH1 0x0 DUP1 REVERT JUMPDEST CALLVALUE DUP1 ISZERO PUSH2 0x50 JUMPI PUSH1 0x0 DUP1 REVERT JUMPDEST POP PUSH2 0x87 PUSH1 0x4 DUP1 CALLDATASIZE SUB PUSH1 0x60 DUP2 LT ISZERO PUSH2 0x67 JUMPI PUSH1 0x0 DUP1 REVERT JUMPDEST POP PUSH1 0x1 PUSH1 0x1 PUSH1 0xA0 SHL SUB DUP2 CALLDATALOAD DUP2 AND SWAP2 PUSH1 0x20 DUP2 ADD CALLDATALOAD SWAP2 PUSH1 0x40 SWAP1 SWAP2 ADD CALLDATALOAD AND PUSH2 0x12F JUMP JUMPDEST STOP JUMPDEST PUSH2 0x87 PUSH1 0x4 DUP1 CALLDATASIZE SUB PUSH1 0x80 DUP2 LT ISZERO PUSH2 0x9F JUMPI PUSH1 0x0 DUP1 REVERT JUMPDEST POP DUP1 CALLDATALOAD PUSH1 0x1 PUSH1 0x1 PUSH1 0xA0 SHL SUB SWAP1 DUP2 AND SWAP2 PUSH1 0x20 DUP2 ADD CALLDATALOAD SWAP2 PUSH1 0x40 DUP3 ADD CALLDATALOAD AND SWAP1 PUSH1 0x60 ADD CALLDATALOAD PUSH2 0xFFFF AND PUSH2 0x1D5 JUMP JUMPDEST CALLVALUE DUP1 ISZERO PUSH2 0xD4 JUMPI PUSH1 0x0 DUP1 REVERT JUMPDEST POP PUSH2 0xDD PUSH2 0x2FD JUMP JUMPDEST PUSH1 0x40 DUP1 MLOAD PUSH2 0xFFFF SWAP1 SWAP3 AND DUP3 MSTORE MLOAD SWAP1 DUP2 SWAP1 SUB PUSH1 0x20 ADD SWAP1 RETURN JUMPDEST CALLVALUE DUP1 ISZERO PUSH2 0x100 JUMPI PUSH1 0x0 DUP1 REVERT JUMPDEST POP PUSH2 0x87 PUSH1 0x4 DUP1 CALLDATASIZE SUB PUSH1 0x40 DUP2 LT ISZERO PUSH2 0x117 JUMPI PUSH1 0x0 DUP1 REVERT JUMPDEST POP PUSH1 0x1 PUSH1 0x1 PUSH1 0xA0 SHL SUB DUP2 CALLDATALOAD DUP2 AND SWAP2 PUSH1 0x20 ADD CALLDATALOAD AND PUSH2 0x307 JUMP JUMPDEST PUSH1 0x1 PUSH1 0x1 PUSH1 0xA0 SHL SUB DUP4 DUP2 AND PUSH1 0x0 SWAP1 DUP2 MSTORE PUSH1 0x1 PUSH1 0x20 MSTORE PUSH1 0x40 SWAP1 KECCAK256 SLOAD AND PUSH2 0x153 JUMPI PUSH1 0x0 DUP1 REVERT JUMPDEST PUSH1 0x1 PUSH1 0x1 PUSH1 0xA0 SHL SUB DUP1 DUP5 AND PUSH1 0x0 SWAP1 DUP2 MSTORE PUSH1 0x1 PUSH1 0x20 MSTORE PUSH1 0x40 DUP1 DUP3 KECCAK256 SLOAD DUP2 MLOAD PUSH4 0xE6DFCD5 PUSH1 0xE0 SHL DUP2 MSTORE CALLER PUSH1 0x4 DUP3 ADD MSTORE DUP6 DUP6 AND PUSH1 0x24 DUP3 ADD MSTORE PUSH1 0x44 DUP2 ADD DUP8 SWAP1 MSTORE SWAP2 MLOAD SWAP4 AND SWAP3 PUSH4 0xE6DFCD5 SWAP3 PUSH1 0x64 DUP1 DUP5 ADD SWAP4 SWAP2 SWAP3 SWAP2 DUP3 SWAP1 SUB ADD DUP2 DUP4 DUP8 DUP1 EXTCODESIZE ISZERO DUP1 ISZERO PUSH2 0x1B8 JUMPI PUSH1 0x0 DUP1 REVERT JUMPDEST POP GAS CALL ISZERO DUP1 ISZERO PUSH2 0x1CC JUMPI RETURNDATASIZE PUSH1 0x0 DUP1 RETURNDATACOPY RETURNDATASIZE PUSH1 0x0 REVERT JUMPDEST POP POP POP POP POP POP POP JUMP JUMPDEST PUSH1 0x1 PUSH1 0x1 PUSH1 0xA0 SHL SUB DUP5 DUP2 AND PUSH1 0x0 SWAP1 DUP2 MSTORE PUSH1 0x1 PUSH1 0x20 MSTORE PUSH1 0x40 SWAP1 KECCAK256 SLOAD AND PUSH2 0x1F9 JUMPI PUSH1 0x0 DUP1 REVERT JUMPDEST PUSH1 0x0 DUP1 SLOAD PUSH2 0xFFFF NOT AND PUSH2 0xFFFF DUP4 AND OR DUP2 SSTORE PUSH1 0x1 PUSH1 0x1 PUSH1 0xA0 SHL SUB DUP6 DUP2 AND DUP1 DUP4 MSTORE PUSH1 0x1 PUSH1 0x20 MSTORE PUSH1 0x40 DUP1 DUP5 KECCAK256 SLOAD DUP2 MLOAD PUSH4 0x23B872DD PUSH1 0xE0 SHL DUP2 MSTORE DUP8 DUP6 AND PUSH1 0x4 DUP3 ADD MSTORE SWAP4 AND PUSH1 0x24 DUP5 ADD MSTORE PUSH1 0x44 DUP4 ADD DUP8 SWAP1 MSTORE MLOAD SWAP1 SWAP3 PUSH4 0x23B872DD SWAP3 PUSH1 0x64 DUP1 DUP3 ADD SWAP4 SWAP2 DUP3 SWAP1 SUB ADD DUP2 DUP4 DUP8 DUP1 EXTCODESIZE ISZERO DUP1 ISZERO PUSH2 0x26A JUMPI PUSH1 0x0 DUP1 REVERT JUMPDEST POP GAS CALL ISZERO DUP1 ISZERO PUSH2 0x27E JUMPI RETURNDATASIZE PUSH1 0x0 DUP1 RETURNDATACOPY RETURNDATASIZE PUSH1 0x0 REVERT JUMPDEST POP POP POP PUSH1 0x1 PUSH1 0x1 PUSH1 0xA0 SHL SUB DUP1 DUP7 AND PUSH1 0x0 SWAP1 DUP2 MSTORE PUSH1 0x1 PUSH1 0x20 MSTORE PUSH1 0x40 DUP1 DUP3 KECCAK256 SLOAD DUP2 MLOAD PUSH4 0x40C10F19 PUSH1 0xE0 SHL DUP2 MSTORE DUP8 DUP6 AND PUSH1 0x4 DUP3 ADD MSTORE PUSH1 0x24 DUP2 ADD DUP10 SWAP1 MSTORE SWAP2 MLOAD SWAP4 AND SWAP4 POP PUSH4 0x40C10F19 SWAP3 PUSH1 0x44 DUP1 DUP4 ADD SWAP4 SWAP3 DUP3 SWAP1 SUB ADD DUP2 DUP4 DUP8 DUP1 EXTCODESIZE ISZERO DUP1 ISZERO PUSH2 0x2DF JUMPI PUSH1 0x0 DUP1 REVERT JUMPDEST POP GAS CALL ISZERO DUP1 ISZERO PUSH2 0x2F3 JUMPI RETURNDATASIZE PUSH1 0x0 DUP1 RETURNDATACOPY RETURNDATASIZE PUSH1 0x0 REVERT JUMPDEST POP POP POP POP POP POP POP POP JUMP JUMPDEST PUSH1 0x0 SLOAD PUSH2 0xFFFF AND DUP2 JUMP JUMPDEST PUSH1 0x1 PUSH1 0x1 PUSH1 0xA0 SHL SUB SWAP2 DUP3 AND PUSH1 0x0 SWAP1 DUP2 MSTORE PUSH1 0x1 PUSH1 0x20 MSTORE PUSH1 0x40 SWAP1 KECCAK256 DUP1 SLOAD PUSH1 0x1 PUSH1 0x1 PUSH1 0xA0 SHL SUB NOT AND SWAP2 SWAP1 SWAP3 AND OR SWAP1 SSTORE JUMP INVALID LOG2 PUSH6 0x627A7A723158 KECCAK256 0xF8 CREATE2 0xA8 SWAP10 SWAP1 DUP9 STOP 0xD0 EXTCODECOPY RETURNDATACOPY PUSH25 0x4F9DB86AD6E1572326FA0BBE9056FCAC15C5CEC17864736F6C PUSH4 0x43000511 STOP ORIGIN ",
  "sha1": "ff289186fd68688412a55fbc74d614267a00453a",
  "source": "pragma solidity ^0.5.0;\n\n\ninterface IERC20 {\n    function transferFrom(address, address, uint256) external;\n}\n\ninterface aToken {\n    function mint(address _to, uint256 _amount) external;\n    function redeem(address _from, address _to, uint256 _amount) external;\n}\n\ncontract AaveLendingPoolMock {\n\n    uint16 public lastReferral;\n\n    mapping (address => address) aTokens;\n\n    function _add_token(address _underlying, address _aToken) external {\n        aTokens[_underlying] = _aToken;\n    }\n\n    /**\n    * @dev deposits The underlying asset into the reserve. A corresponding amount\n           of the overlying asset (aTokens) is minted.\n    * @param _reserve the address of the reserve\n    * @param _amount the amount to be deposited\n    * @param _referralCode integrators are assigned a referral code and can potentially receive rewards.\n    **/\n    function deposit(address _reserve, uint256 _amount, address _receiver, uint16 _referralCode) external payable {\n        require (aTokens[_reserve] != address(0));\n        lastReferral = _referralCode;\n        IERC20(_reserve).transferFrom(_receiver, aTokens[_reserve], _amount);\n        aToken(aTokens[_reserve]).mint(_receiver, _amount);\n    }\n\n    function withdraw(address asset, uint256 amount, address to) external {\n        require (aTokens[asset] != address(0));\n        aToken(aTokens[asset]).redeem(msg.sender, to, amount);\n    }\n}\n",
  "sourcePath": "contracts/testing/AaveLendingPoolMock.sol",
  "type": "contract"
}